:0400000069EF00F0B4
:10000800FACF05F0FBCF06F0E9CF07F0EACF08F00A
:10001800E1CF09F0E2CF0AF0D9CF0BF0DACF0CF03C
:10002800F3CF0DF0F4CF0EF0F6CF0FF0F7CF10F0BE
:10003800F8CF11F0F5CF12F0F2AA01D001D008D014
:10004800F2A401D001D004D0F29433EC15F000D022
:100058009DA001D001D008D09EA001D001D004D02D
:100068009E904FEC14F000D06E500E0BD8B401D017
:1000780001D002D000014D809DAC01D001D008D044
:100088009EAC01D001D004D09E9C14EC15F000D099
:1000980012C0F5FF11C0F8FF10C0F7FF0FC0F6FF40
:1000A8000EC0F4FF0DC0F3FF0CC0DAFF0BC0D9FF80
:1000B8000AC0E2FF09C0E1FF08C0EAFF07C0E9FF84
:0E00C80006C0FBFF05C0FAFF11008AEF11F021
:100F0000060E0802000024D00001E96F000E3E6EBC
:100F10000001E95148D00001E96F010E3E6E000169
:100F2000E95141D00001E96F020E3E6E0001E95126
:100F30003AD00001E96F030E3E6E0001E95133D053
:100F40000001E96F000E3E6E0001E9512CD02BD05C
:100F5000E6C0D9FFE7C0DAFFDF500001E96F060EF7
:100F60000001EA6F0001D890E9330001EA2FFAD7B7
:100F70000001E951030B0001EB6FEC6B0001EC5138
:100F8000000AD8B401D0DCD70001EB51000AD8B474
:100F9000BBD7010AD8B4BFD7030AD8B4C3D7010A54
:100FA000D8B4C7D7CDD7FF0EE6C0D9FFE7C0DAFF68
:100FB000DF6201D001D003D0D6EC11F000D00001E7
:100FC00020EE01F00001E451D9260001E551DA22BA
:100FD000DF500001E96F050E0001EA6F0001D890B3
:100FE000E9330001EA2FFAD70001E951030B030AA4
:100FF000D8A401D001D025D03F50D8B401D001D021
:1010000002D076D175D10001E96F000E0001000118
:10101000B76F0001E951D58ECD500001E96F000E88
:101020004A6E0001E95100014D920001E96F000E86
:10103000426E0001E951828C82888386839458D164
:1010400057D13E50020AD8A401D001D01CD1E6C02D
:10105000D9FFE7C0DAFFDF503F0B020AD8B401D056
:1010600001D011D1CCEC12F00ED10DD13E04D8A498
:1010700001D001D02CD10001E96F000E196E0001E2
:10108000E95116EC12F023D122D13EC01BF02AEC1C
:1010900014F01DD10001E96F040E496E0001E95101
:1010A0000001E96F020E00010001C86F0001E95163
:1010B000000E446E090E436E0001E96F020E4C6E85
:1010C0000001E951000E146E430E136E000E166EF1
:1010D0004C0E156E0001000E186E0001C90E176E41
:1010E000DCEC13F042C0CBF00001000E146E0001E6
:1010F000D40E136E0001000E166E0001C80E156EA0
:1011000049C017F038EC0CF0E2D05FEC0DF03E0473
:10111000D8A401D001D023D00001E96F030E496E9D
:101120000001E9510001E96F030E00010001C86FE1
:101130000001E95147C0C9F048C0CAF00001000EE3
:10114000146E0001D40E136E0001000E166E000125
:10115000C80E156E49C017F038EC0CF000D0C3EC87
:1011600010F0C00EF212F28AF294D59CD59AD80EE5
:10117000D76EEF0ED66ED58EAAD0C1C042F0838452
:10118000C3EC10F0CD800001E96F010E4A6E000142
:10119000E95100014D820001E96F010E3F6E00012F
:1011A000E9513E04D8A401D001D091D00001E96FEB
:1011B000040E496E0001E9510001E96F020E0001C1
:1011C0000001C86F0001E95147C0C9F048C0CAF02A
:1011D00042C0CBF00001000E146E0001D40E136E5D
:1011E0000001000E166E0001C80E156E49C017F002
:1011F00038EC0CF06CD06BD00001E96F000E426E41
:101200000001E9510001E96F000E3F6E0001E95154
:10121000CD50D58E0001E96F000E4A6E0001E951F4
:1012200000014D92828C8288838683943E04D8A4E8
:1012300001D001D04CD00001E96F040E496E0001CD
:10124000E9510001E96F020E00010001C86F0001C1
:10125000E95147C0C9F048C0CAF042C0CBF0000114
:10126000000E146E0001D40E136E0001000E166EF7
:101270000001C80E156E49C017F038EC0CF027D0ED
:1012800026D025D024D0E6C0D9FFE7C0DAFFDF5052
:101290003F0B0001E96FEA6B0001EA51000AD8B484
:1012A00001D015D00001E951000AD8B4DFD6010AF7
:1012B000D8B4EBD6030AD8B4EDD6010AD8B425D7F2
:1012C000070AD8B45AD7010AD8B496D700D000017B
:1012D000E96F000E00010001BB6F0001E951000140
:1012E000E96F030E00010001BE6F0001E95100D05B
:1012F000120077A001D001D067D07790609E1CC00B
:10130000D9FF1DC0DAFF61CFDFFF20EE01F01C50D6
:10131000D9261D50DA2262CFDFFF20EE02F01C50EA
:10132000D9261D50DA2263CFDFFF20EE03F01C50D8
:10133000D9261D50DA2264CFDFFF20C0D9FF21C09B
:10134000DAFF65CFDFFF1EC0D9FF1FC0DAFF66CF0F
:10135000DFFF20EE01F01E50D9261F50DA2267CFA2
:10136000DFFF20EE02F01E50D9261F50DA2268CF90
:10137000DFFF20EE03F01E50D9261F50DA2269CF7E
:10138000DFFF20EE04F01E50D9261F50DA226ACF6C
:10139000DFFF20EE05F01E50D9261F50DA226BCF5A
:1013A000DFFF20EE06F01E50D9261F50DA226CCF48
:1013B000DFFF20EE07F01E50D9261F50DA226DCF36
:1013C000DFFFD880FFD0FED077A201D001D076D049
:1013D00077920F010F01309F1CC0D9FF1DC0DAFFAB
:1013E0000F0131CFDFFF20EE01F01C50D9261D5038
:1013F000DA220F0132CFDFFF20EE02F01C50D92697
:101400001D50DA220F0133CFDFFF20EE03F01C5016
:10141000D9261D50DA220F0134CFDFFF20C0D9FFBB
:1014200021C0DAFF0F0135CFDFFF1EC0D9FF1FC07B
:10143000DAFF0F0136CFDFFF20EE01F01E50D92674
:101440001F50DA220F0137CFDFFF20EE02F01E50CF
:10145000D9261F50DA220F0138CFDFFF20EE03F02C
:101460001E50D9261F50DA220F0139CFDFFF20EEA0
:1014700004F01E50D9261F50DA220F013ACFDFFFA9
:1014800020EE05F01E50D9261F50DA220F013BCF67
:10149000DFFF20EE06F01E50D9261F50DA220F0182
:1014A0003CCFDFFF20EE07F01E50D9261F50DA2276
:1014B0000F013DCFDFFFD88085D084D077A401D045
:1014C00001D001D0779477A601D001D001D07796D2
:1014D00077A801D001D001D0779877AA01D001D0A8
:1014E0006FD0779A1CC0D9FF1DC0DAFF000EDF6EE7
:1014F00020EE01F01C50D9261D50DA22000EDF6EBE
:1015000020EE02F01C50D9261D50DA22000EDF6EAC
:1015100020EE03F01C50D9261D50DA22000EDF6E9B
:1015200020C0D9FF21C0DAFF000EDF6E1EC0D9FF38
:101530001FC0DAFF000EDF6E20EE01F01E50D9262C
:101540001F50DA22000EDF6E20EE02F01E50D92668
:101550001F50DA22000EDF6E20EE03F01E50D92657
:101560001F50DA22000EDF6E20EE04F01E50D92646
:101570001F50DA22000EDF6E20EE05F01E50D92635
:101580001F50DA22000EDF6E20EE06F01E50D92624
:101590001F50DA22000EDF6E20EE07F01E50D92613
:1015A0001F50DA22000EDF6E226E060E176E2250DA
:1015B000ADEC13F01A6E55EC12F0D89003D002D0B7
:1015C000D89000D01200000E00010001E16F000E63
:1015D0000001E06F00010001E151800A800F0A0E56
:1015E000D8B4E05DD8A001D001D002D0F4D0F3D0BF
:1015F000000E00010001E36F000E0001E26F000128
:101600000001E351800A800F100ED8B4E25DD8A02B
:1016100001D001D002D0CED0CDD000010001E251E6
:10162000030D0001600EF324D96EDA6A0001000E8A
:10163000DA22DECF1EF0DECF1FF0DDCF20F000017A
:101640000001E051030D0001900EF324D96EDA6A17
:101650000001000EDA22DECF1BF0DECF1CF0DDCF62
:101660001DF02DEC0EF01BC02CF01CC02DF01DC089
:101670002EF0CCEC0EF0D89000010001E235000114
:10168000DA6F00010001E3350001DB6F0001E0C00B
:10169000DCF00001E1C0DDF0050ED8900001DC3780
:1016A000DD37E82EFAD7700E0001DC250001DE6F71
:1016B000020E0001DD210001DF6F0001DA5100019F
:1016C000DE25D96E0001DB510001DF21DA6E2CC06E
:1016D000DEFF2DC0DDFF00010001E251030D01011D
:1016E000000EF324D96EDA6A0101010EDA22DECF90
:1016F0001EF0DECF1FF0DDCF20F000010001E05131
:10170000030D0001900EF324D96EDA6A0001000E79
:10171000DA22DECF1BF0DECF1CF0DDCF1DF02DEC8A
:101720000EF01BC02CF01CC02DF01DC02EF0CCEC18
:101730000EF0D89000010001E2350001DA6F0001DF
:101740000001E3350001DB6F0001E0C0DCF00001C7
:10175000E1C0DDF0050ED8900001DC37DD37E82E62
:10176000FAD7300E0001DC250001DE6F010E00010A
:10177000DD210001DF6F0001DA510001DE25D96EA5
:101780000001DB510001DF21DA6E2CC0DEFF2DC02D
:10179000DDFF00010001E24BE32B00010001E351FA
:1017A000800A800F100ED8B4E25DD8A001D001D01D
:1017B00034D700D000010001E04BE12B0001000113
:1017C000E151800A800F0A0ED8B4E05DD8A001D0A4
:1017D00001D00ED700D000010001D951200D700EAC
:1017E000F3240001DA6F020EF4200001DB6F000128
:1017F0000001D851020DF3500001DA25D96EF450E2
:101800000001DB21DA6EDECF13F0DDCF14F0000E25
:10181000166E190E156E77EC13F013C0B4F014C0E9
:10182000B5F000010001D951200D300EF324000164
:10183000DA6F010EF4200001DB6F00010001D851C6
:10184000020DF3500001DA25D96EF4500001DB21BE
:10185000DA6EDECF13F0DDCF14F0000E166E190E27
:10186000156E77EC13F013C0B2F014C0B3F0120091
:101870000F010F0120BF01D001D05CD017C025FFA0
:1018800015C0D9FF16C0DAFFDF500F010F01266F18
:1018900020EE01F01550D9261650DA22DF500F0144
:1018A0000F01276F20EE02F01550D9261650DA22CC
:1018B000DF500F010F01286F20EE03F01550D926DD
:1018C0001650DA22DF500F010F01296F20EE04F0CD
:1018D0001550D9261650DA22DF500F010F012A6F5A
:1018E00020EE05F01550D9261650DA22DF500F01F0
:1018F0000F012B6F20EE06F01550D9261650DA2274
:10190000DF500F010F012C6F20EE07F01550D92684
:101910001650DA22DF500F010F012D6F0F010F015A
:10192000208700D00F010F0120B701D001D0FAD7D6
:10193000C5D0C4D00F010F0110BF01D001D05CD0C1
:1019400017C015FF15C0D9FF16C0DAFFDF500F0111
:101950000F01166F20EE01F01550D9261650DA222D
:10196000DF500F010F01176F20EE02F01550D9263E
:101970001650DA22DF500F010F01186F20EE03F02E
:101980001550D9261650DA22DF500F010F01196FBA
:1019900020EE04F01550D9261650DA22DF500F0140
:1019A0000F011A6F20EE05F01550D9261650DA22D5
:1019B000DF500F010F011B6F20EE06F01550D926E6
:1019C0001650DA22DF500F010F011C6F20EE07F0D6
:1019D0001550D9261650DA22DF500F010F011D6F66
:1019E0000F010F01208700D00F010F0120B701D098
:1019F00001D0FAD763D062D00F010F0100BF01D030
:101A000001D05CD017C005FF15C0D9FF16C0DAFFA2
:101A1000DF500F010F01066F20EE01F01550D9269F
:101A20001650DA22DF500F010F01076F20EE02F08F
:101A30001550D9261650DA22DF500F010F01086F1A
:101A400020EE03F01550D9261650DA22DF500F0190
:101A50000F01096F20EE04F01550D9261650DA2236
:101A6000DF500F010F010A6F20EE05F01550D92647
:101A70001650DA22DF500F010F010B6F20EE06F037
:101A80001550D9261650DA22DF500F010F010C6FC6
:101A900020EE07F01550D9261650DA22DF500F013C
:101AA0000F010D6F0F010F01008700D00F010F0113
:101AB00000B701D001D0FAD701D000D01200000E3B
:101AC000446E090E436E3B6E020E4C6E3B50000E90
:101AD000146E430E136E000E166E4C0E156E000E35
:101AE000186E470E176EDCEC13F04750000120EE25
:101AF000C1F0DF6201D001D009D000010001C25164
:101B0000030BD8B401D001D0A7D000D00001000150
:101B1000C1514718D8B401D001D019D0000E446E7D
:101B2000090E436E3B6E010E4C6E3B50000E146E60
:101B3000430E136E000E166E4C0E156E0001000E55
:101B4000186E0001C10E176E3FEC13F000D00001BB
:101B50000001C251030BD8B401D001D019D0000E3E
:101B6000446E0A0E436E3B6E010E4C6E3B50000EEF
:101B7000146E430E136E000E166E4C0E156E0001A1
:101B8000000E186E0001C20E176E3FEC13F000D06D
:101B9000000E446E090E436E3B6E020E4C6E3B50BF
:101BA000000E146E430E136E000E166E4C0E156E64
:101BB000000E186E470E176EDCEC13F047380F0B53
:101BC0000F0B00010001BD6F47500F0B000100011A
:101BD000BA6FBDC0D8F0BAC0D9F0E3EC0AF0B4C017
:101BE0003CF0B5C03DF03CC045F03D50466E000EA7
:101BF000446E050E436E3B6E020E4C6E3B50000E63
:101C0000146E430E136E000E166E4C0E156E000E03
:101C1000186E450E176E3FEC13F0B2C03CF0B3C027
:101C20003DF03CC045F03D50466E000E446E070E40
:101C3000436E3B6E020E4C6E3B50000E146E430E14
:101C4000136E000E166E4C0E156E000E186E450EBD
:101C5000176E3FEC13F000D012000F0E216E1BC068
:101C600022F01CC023F01DC024F02128256E04D0D2
:101C7000D890243223322232252EFAD72250266ED3
:101C8000266601D001D008D0000E1B6E000E1C6E1F
:101C9000000E1D6E80D07FD00F0E216E1EC022F070
:101CA0001FC023F020C024F02128256E04D0D89036
:101CB000243223322232252EFAD722502B6E2B6665
:101CC00001D001D008D0000E1B6E000E1C6E000E5D
:101CD0001D6E61D060D02B507B0F26261DC02BF0CF
:101CE00020502B1A800E2B161C8E1F8EFF0E1E16D8
:101CF000FF0E1F16000E2016000E276E000E286E17
:101D0000000E296E216E070E2A6E215000D01BA0F6
:101D100001D001D007D01E5027261F502822205066
:101D2000292200D0D8901D321C321B32D8901E368A
:101D30001F3620362A2EEBD700D0216E090E2A6ED0
:101D4000215000D01BA001D001D007D01E50272663
:101D50001F5028222050292200D0D8901D321C323A
:101D60001B32D8902932283227322A2EEBD700D0C6
:101D700027C013F028C014F029C015F026C016F0B3
:101D80002BC017F064EC0FF013C01BF014C01CF054
:101D900015C01DF000D012000F0E306E2CC031F0B7
:101DA0002DC032F02EC033F03028346E04D0D890DD
:101DB000333232323132342EFAD731503A6E3A66FB
:101DC00001D001D00AD0000E2C6E000E2D6E000E38
:101DD0002E6E000E2F6E77D076D0170E306E2CC080
:101DE00031F02DC032F02EC033F03028346E04D0E4
:101DF000D890333232323132342EFAD73150356EF8
:101E00002D8EFF0E2C16FF0E2D16000E2E162C50AA
:101E1000366E2D50376E2E50386E396A8E0E3A5E01
:101E20003AAE01D001D01BD03A50800A8F0FD8B003
:101E300001D001D00BD0000E2C6E000E2D6E000EC6
:101E40002E6E000E2F6E3FD03ED000D0D89039328B
:101E50003832373236323A3EF9D71ED01DD0170EFF
:101E60003A6401D001D012D0000E2C6E000E2D6EFF
:101E7000000E2E6E000E2F6E26D025D007D0D890E3
:101E800036363736383639363A0600D03A6601D01B
:101E900001D0F5D701D000D03550D8B401D001D051
:101EA00009D0391E381E371E366C000E37223822F4
:101EB000392200D036C02CF037C02DF038C02EF0BB
:101EC00039C02FF000D012001650D8B401D001D084
:101ED00008D0135014101510D8A401D001D010D080
:101EE00000D0000E136E000E146E000E156E62D040
:101EF00061D006D0162AD89015321432133200D091
:101F0000000E1314186E000E1414196EFE0E151424
:101F10001A6E185019101A10D8A401D001D0EAD79F
:101F20000DD00CD0162A010E1326000E1422000E1E
:101F30001522D89015321432133200D0000E13142B
:101F4000186E000E1414196EFF0E15141A6E185028
:101F500019101A10D8A401D001D0E4D707D006D0A8
:101F60001606D89013361436153600D014AE01D0AC
:101F700001D0F6D716B001D001D002D0149E00D007
:101F8000D890163216501A6E196A186A1850131221
:101F9000195014121A5015121750D8B401D001D08C
:101FA00002D0158E00D013C013F014C014F015C069
:101FB00015F000D01200000E0E010E01E06F143873
:101FC000E846E00B08090E010E01E06F000E0E015D
:101FD0000E01E16F13380F0B08090E010E01E16FBE
:101FE000000E0E010E01E26F1338F00B0F090E0107
:101FF0000E01E26F000E0E010E01E36F0E010E01E5
:10200000E369E0CEE4FEE1CEE5FEE2CEE6FEE3CE1D
:10201000E7FEE0CEE8FEE1CEE9FEE2CEEAFEE3CE68
:10202000EBFEE0CEECFEE1CEEDFEE2CEEEFEE3CE48
:10203000EFFE680E0E010E01F06F6A0E0E010E012A
:10204000F16F0F0E0E010E01F26F0E010E01F3691A
:10205000E0CEF4FEE1CEF5FEE2CEF6FEE3CEF7FEF4
:102060001F0E0E010E01F86F830E0E010E01F96FA7
:10207000F00E0E010E01FA6F000E0E010E01FB6F45
:102080001F0E0E010E01FC6FE30E0E010E01FD6F1F
:10209000F00E0E010E01FE6F000E0E010E01FF6F1D
:1020A0001200136E000E166E1350000E156E000E09
:1020B000146E8138E842070B070B166E000E156E82
:1020C000000E146EE80E145C030E1558D8A001D053
:1020D00001D002D00CD00BD0144A152AE80E145CA3
:1020E000030E1558D8A001D001D0F6D700D0813802
:1020F000E842070B070B1618D8A401D001D03FD037
:1021000023D022D0130E3ED03DD03CD0140E3AD076
:1021100039D038D0150E36D035D034D0160E32D056
:1021200031D030D0170E2ED02DD02CD0180E2AD072
:1021300029D028D01A0E26D025D024D01B0E22D08C
:1021400021D020D01FD01ED01650000AD8B4DAD724
:10215000010AD8B4DBD7030AD8B4DCD7010AD8B453
:10216000DDD7070AD8B4DED7010AD8B4DFD7030A0F
:10217000D8B4E0D7010AD8B4E1D704D003D0FF0E19
:1021800001D000D01200000E446E050E436E196E91
:10219000020E4C6E1950000E146E430E136E000E9C
:1021A000166E4C0E156E000E186E450E176EDCEC9A
:1021B00013F0000145C0B4F000010001B56B46C04A
:1021C0003CF03D6A3C5000010001B4133D50000159
:1021D0000001B513000E446E070E436E196E020E19
:1021E0004C6E1950000E146E430E136E000E166ED8
:1021F0004C0E156E000E186E450E176EDCEC13F0CB
:10220000000145C0B2F000010001B36B46C03CF0D4
:102210003D6A3C5000010001B2133D500001000135
:10222000B313000E446E090E436E196E020E4C6E0F
:102230001950000E146E430E136E000E166E4C0EE7
:10224000156E000E186E470E176EDCEC13F048503A
:10225000030B416E1200010E186EF40E176EBEECE9
:1022600014F024EC15F0EEEC14F00001ED6F060E06
:10227000176E0001ED51ADEC13F0406E40C01AF046
:1022800055EC12F00001ED6F010E00010001BE6F70
:102290000001ED51D18000D000014D900001000EF1
:1022A0001D6E0001D00E1C6E0001000E1F6E00019D
:1022B000C00E1E6E000E216E4B0E206E79EC09F0E2
:1022C000D8A001D001D017D00001000E00010001FC
:1022D000E56F0001D00E0001E46F0001000E000167
:1022E0000001E76F0001C00E0001E66F4BC0E8F08F
:1022F00083EC07F000D004003F50D8B401D001D0E7
:1023000002D0CAD7C9D791EC12F0C6D7C5D7C4D767
:1023100069EF00F001EE30F012EE80F0EE6AE55069
:10232000E150FCE1E250FAE100EEAEF02A0EEE6A76
:10233000E806FDE14D6A00EE3CF00D0EEE6AE8069F
:10234000FDE14C0EF66E290EF76E000EF86E01EEF2
:1023500000F010EE30F00900F5CFEEFFE550E1504F
:10236000FAE1060EF66E280EF76E000EF86E00EE1D
:1023700060F010EE4EF00900F5CFEEFFE550E150B1
:10238000FAE1740EF66E2A0EF76E000EF86E00EE8D
:1023900049F010EE04F00900F5CFEEFFE550E150F2
:1023A000FAE1000EF86E00012BEF11F0186E060E28
:1023B000496E185000010001C869000EF66E0F0E3C
:1023C000F76E08000001F5CFC9F0010EF66E0F0E92
:1023D000F76E08000001F5CFCAF0020EF66E0F0E80
:1023E000F76E08000001F5CFCBF0030EF66E0F0E6E
:1023F000F76E08000001F5CFCCF0040EF66E0F0E5C
:10240000F76E08000001F5CFCDF00001000E146E4C
:102410000001D40E136E0001000E166E0001C80EEE
:10242000156E49C017F038EC0CF012001A6E050E4C
:10243000496E1A50196601D001D007D01A6E000EED
:1024400000010001C86F1A5007D01A6E010E00017A
:102450000001C86F1A5000D0000E446E000E436E8B
:102460001A6E040E4C6E1A50000E146E430E136E4C
:10247000000E166E4C0E156E0001000E186E000157
:10248000C90E176EDCEC13F00001000E146E000193
:10249000D40E136E0001000E166E0001C80E156EEC
:1024A00049C017F038EC0CF01200938693946F8EAD
:1024B00000D06EAE01D001D0FCD700D03F0E721616
:1024C000000E0E010E01436FD10E0E010E01446F7E
:1024D000C10E0E010E01456F210E706E060E6012C8
:1024E000060E0F010F0130131AC013F01B6E030EFE
:1024F000146E1B5006EC13F01AC013F01B6E030E83
:10250000146E1B50DBEC0FF03CEC15F0000E706EFF
:102510001F0E6F1600D06EB001D001D0FCD700D0D6
:10252000120000014DA401D001D035D000014D941E
:1025300000010001BF2B630E00010001BF6501D047
:1025400001D029D01A6E000E00010001BF6F1A5091
:1025500000010001B72B030E00010001B76501D097
:1025600001D019D01A6E000E00010001B76F1A5089
:102570008384D59EF2941A6E060E426E1A50C3ECF6
:1025800010F0CD801A6E010E4A6E1A5000014D8275
:1025900002D001D000D01200186E000E196E185033
:1025A000070E196401D001D002D01DD01CD01950E3
:1025B000010D0001C00EF324D96EDA6A0001000E8D
:1025C000DA221950010D0001C80EF324E16EE26A0F
:1025D0000001000EE222DFCFE7FF192A070E19647F
:1025E00001D001D0E4D74BC049F00001000E146EB9
:1025F0000001D40E136E0001000E166E0001C80E0D
:10260000156E49C017F038EC0CF01200000E0F01E7
:102610000F01216F13C015F0D89015321438E84619
:10262000E00B15100F010F01216F000E0F010F01BC
:10263000226F1340800B09090F010F01226F000E5A
:102640000F010F01236F0F0E0F010F01236F000EFB
:102650000F010F01246F0F010F01246921CF11FF1A
:1026600022CF12FF23CF13FF24CF14FF21CF01FF6E
:1026700022CF02FF23CF03FF24CF04FF12003F0E1F
:10268000F21627D0000E756E13C0D9FF14C0DAFF02
:10269000DF50746E13C0D9FF14C0DAFFDF2A17C0F1
:1026A000D9FF18C0DAFFDF50736E174A182A3F0EA1
:1026B0007F167F84550E7E6EAA0E7E6E7F8200F09E
:1026C00000D07FB201D001D0FCD700F0040E7F16FD
:1026D00000D0FF0E15C0D9FF16C0DAFFDF06DF629B
:1026E00001D001D0CFD700D0C00EF2161200000EDC
:1026F0001A6E000E196E16501510D8B401D001D004
:1027000027D0176E010E186E175005D0D8901536C9
:102710001636182A00D016AE01D001D0F7D701D056
:1027200000D0D89019361A361550135C165014582C
:10273000D8A001D001D006D01550135E1650145AFF
:10274000198000D0D89016321532182EEAD700D052
:1027500019C013F01AC014F0120017D0186E200E12
:10276000196E185026D051EC10F0196E22D0186E48
:102770002E0E196E18501DD01CD01BD01AD0186EFA
:10278000000E196E185015D014D01750010AD8B485
:10279000E5D7030AD8B4E7D7010AD8B40AD0070AA4
:1027A000D8B407D0010AD8B404D0030AD8B4DFD70C
:1027B000E6D7195000D01200000E756E13C0D9FF75
:1027C00014C0DAFFDF50746E13C0D9FF14C0DAFFF3
:1027D000DF2A000E736E3F0E7F167F8000F017C059
:1027E000D9FF18C0DAFF73CFDFFF174A182AFF0E90
:1027F00015C0D9FF16C0DAFFDF06DF6201D001D0B5
:10280000DBD700D0120000000000803D00003E0039
:10281000403E00803E00A03E00C03E00E03E000082
:102820003F00103F00203F00303F00403F00503F3E
:1028300000603F00803F409C45505045401C450093
:10284000FA44007A44AD264400FA4300C843A6A6E1
:1028500043004843000E446E000E436E1C6E040E8F
:102860004C6E1C50000E146E430E136E000E166E4E
:102870004C0E156E0001000E186E0001C10E176E91
:102880003FEC13F01B04D8A401D001D007D01C6E7C
:10289000010E196E1C5016EC12F000D012003C0E06
:1028A000CF6EAF0ECE6E00010001AE4BAF2B00011C
:1028B0000001B05100010001AE5D00010001B15105
:1028C00000010001AF59D8A001D001D00AD0000EFC
:1028D00000010001AF6F000E0001AE6F02EC15F0B9
:1028E00000D012000AD0828C828883860ED0829C0F
:1028F000829883860AD009D008D04150010AD8B402
:10290000F2D7030AD8B4F3D700D0B2C0B0F0B3C046
:10291000B1F000014D8212000AD0829C8298839609
:102920000ED0828C828883960AD009D008D041507C
:10293000010AD8B4F2D7030AD8B4F3D700D0B4C090
:10294000B0F0B5C0B1F000014D92120000803F0020
:10295000703F00603F00503F00403F00303F00208C
:102960003F00103F00003F00E03E00C03E00A03EA0
:1029700000803E00403E00003E000000000E1A6E47
:10298000000E196E09D0030E146EE50E136ED6EC10
:1029900014F0194A1A2A00D01750195C18501A5806
:1029A000D8A001D001D0EFD700D01200FB0E132425
:1029B000136EFF0E1420146E000E166E000E156EB0
:1029C00003D0154A162A00D01350155C145016581F
:1029D000D8A001D001D0F5D700D01200C00EF2125D
:1029E000F28AF294D59CD59AD80ED76EEF0ED66E99
:1029F000D58E9D809E90000ECD6E3C0ECF6EAF0E9C
:102A0000CE6E12004A50D8B401D001D00CD00001D3
:102A10004DA201D001D003D08CEC14F004D072ECA4
:102A200014F001D000D01200000E046E000E036EF0
:102A3000C350C4CF01F0026A01C002F0016A011064
:102A4000036E0250046E1200E00E936E8F0E946EB1
:102A5000F30E956E000E0F010F015C6F829A828C4F
:102A6000828883861200D80ED76EEF0ED66E0001D4
:0A2A70004D84120008010804120052
:020000040030CA
:020000001503E6
:020003002200D9
:02000B00E00013
:00000001FF
