:0400000027EF00F0F6
:10000800F2AA01D001D007D0F2A401D001D003D0C8
:10001800F294DCEC07F09DA001D001D007D09EA09F
:1000280001D001D003D09E90A7EC07F06E509DAC94
:1000380001D001D007D09EAC01D001D003D09E9C46
:10004800E3EC07F0110080EF05F0E8CF08F077A0A7
:1000580039D07790609E0850D96EDA6A61CFDFFF99
:100068000850D96EDA6AD92ADA6A62CFDFFFB0D8C7
:1000780063CFDFFFB4D864CFDFFF0750D96EDA6AE9
:1000880065CFDFFF0650D96EDA6A66CFDFFF06500C
:10009800D96EDA6AD92ADA6A67CFDFFFA7D868CFBC
:1000A800DFFFABD869CFDFFFB6D86ACFDFFFACD8A8
:1000B8006BCFDFFFB7D86CCFDFFF83D86DCFDFFF03
:1000C800D880120077A239D077920F01309F08505C
:1000D800D96EDA6A31CFDFFF0850D96EDA6AD92AC9
:1000E800DA6A32CFDFFF74D833CFDFFF78D834CF66
:1000F800DFFF0750D96EDA6A35CFDFFF0650D96EB9
:10010800DA6A36CFDFFF0650D96EDA6AD92ADA6A98
:1001180037CFDFFF6BD838CFDFFF6FD839CFDFFF9E
:100128007AD83ACFDFFF70D83BCFDFFF7BD83CCF00
:10013800DFFF47D83DCFDFFFC3D777B4779477B6D3
:10014800779677B8779877AA33D0779A0850D96E88
:10015800DA6ADF6A0850D96EDA6AD92ADA6ADF6A97
:1001680037D8DF6A3CD8DF6A0750D96EDA6ADF6AA7
:100178000650D96EDA6ADF6A0650D96EDA6AD92A69
:10018800DA6ADF6A0650D96EDA6A020E13D8030EED
:1001980011D8040E0FD8050E0DD8060E0BD8070E71
:1001A800D926DA6ADF6A060EF4EC06F040EC06F0AF
:1001B800D8901200D926DA6ADF6A0650D96EDA6A50
:1001C80012000650D96EDA6A070ED926DA6A1200CA
:1001D8000850D96EDA6A020ED926DA6A1200085077
:1001E800D96EDA6A030ED926DA6A12000650D96E79
:1001F800DA6A020ED926DA6A12000650D96EDA6A6D
:10020800030ED926DA6A12000650D96EDA6A050E8C
:10021800D926DA6A12000650D96EDA6A040ED9268F
:10022800DA6A12000650D96EDA6A060ED926DA6A38
:100238001200E8CF3BF009D0466A22D0010E03D065
:10024800020E01D0030E466E1BD03550D96EDA6A05
:10025800DF50376E060E386ED8903732382EFCD7FE
:10026800030E371637C039F03A6A3A50E5E139508B
:10027800E3E0010AE3E0030AE3E0010AE3E0DCD794
:100288003B50D96EDA6AD92ADA6ADF50376E050E22
:10029800386ED8903732382EFCD73750030B030A04
:1002A8000FE14750D8A41200486AD58ECD505A6A3B
:1002B80000015D904E6A828C828883868394120046
:1002C8004650020A75E13550D96EDA6ADF503F0BA5
:1002D800020A6EE02CEC07F06BD04604D8A412009A
:1002E800000ED4EF06F0465044EF07F0040E596EA6
:1002F800020E0001E66F546A090E536E020E5C6E20
:100308005C0E016E000E036EE70E026E530EB3EC28
:1003180006F02DD0A1EC03F046040FE1030E596E50
:100328000001E66F57C0E7F058C0E8F0E60E016E2E
:1003380059C002F04F0E9EEC02F0ADEC04F0C00E76
:10034800F212F28AF294D59CD59AD80ED76EEF0E97
:10035800D66ED58EEF0CDFC04EF08384ADEC04F082
:10036800CD80010E5A6E00015D80476E14D04EC0DC
:10037800E9F0E60E016E59C002F04F0E9EEF02F052
:100388004E6A476ACD50D58E5A6A00015D90828CBC
:100398008288838683944604D8A41200040E596E7A
:1003A800020E0001E66F57C0E7F058C0E8F0DFD74B
:1003B8003550D96EDA6ADF50376E3F0E371637C0C0
:1003C80038F0396A3950D8A41200385086E0010A4A
:1003D8008AE0030A8BE0010A9DE0070ABCE0010AF3
:1003E800D8A41200CDD7E8CF30F0316A326A336A28
:1003F800346A3350030DF3500001900F5DD827EC99
:1004080003F009C01AF00AC01BF00BC01CF00BEC7B
:1004180004F086D8D8902C362D36E82EFBD7320E2D
:100428002C242E6E020E6FD83350030DF3500001AA
:10043800600F42D827EC03F009C01AF00AC01BF07D
:100448000BC01CF00BEC04F06BD8D8902C362D3672
:10045800E82EFBD7F20E2C242E6E000E54D8334A09
:10046800342A3450800A800F100ED8B4335CC1E3AC
:10047800314A322A3250800A800F0A0ED8B4315CD1
:10048800B6E32950200D320EF3242A6E020E29D825
:100498008EEC06F001C044F002C045F02950200D52
:1004A800F20EF3242A6E000E1CD88EEC06F001C062
:1004B80042F002C043F01200D96EDA6ADECF0CF0C7
:1004C800DECF0DF0DDCF0EF03150030DF350C00F2D
:1004D800D96EDA6ADECF09F0DECF0AF0DDCF0BF095
:1004E8001200F4202B6E3050020DF3502A24D96EDE
:1004F800F4502B20DA6EDECF01F0DDCF02F0046A73
:10050800190E036E190C2D202F6E2A502E24D96E29
:100518002B502F20DA6E1AC0DEFF1BC0DDFF120041
:10052800D89033342A6E34342B6E31C02CF032C05C
:100538002DF0050C0F0120BF19D002C025FF015076
:10054800D96EDA6ADF50266F77D8276F45D8286FBB
:100558004BD8296F59D82A6F4FD82B6F5DD82C6F7D
:1005680063D82D6F208720A71200FDD710BF19D0A0
:1005780002C015FF0150D96EDA6ADF50166F5CD8D9
:10058800176F2AD8186F30D8196F3ED81A6F34D819
:100598001B6F42D81C6F48D81D6F208720A71200F8
:1005A800FDD700BF120002C005FF0150D96EDA6AFC
:1005B800DF50066F41D8076F0FD8086F15D8096F3D
:1005C80023D80A6F19D80B6F27D80C6F2DD80D6F49
:1005D800008700A71200FDD70150D96EDA6A020E13
:1005E800D926DA6ADF5012000150D96EDA6A030E92
:1005F800D926DA6ADF5012000150D96EDA6A050E80
:10060800D926DA6ADF5012000150D96EDA6A040E70
:10061800D926DA6ADF5012000150D96EDA6A060E5E
:10062800D926DA6ADF5012000150D96EDA6A070E4D
:10063800D926DA6ADF5012000150D96EDA6AD92A4F
:10064800DA6ADF5012000F0E0F6E09C010F00AC0F0
:1006580011F00BC012F00F28136E01D069D8132EB9
:10066800FDD71050146E146604D0096A0A6A0B6A22
:1006780012000F0E0F6E0CC010F00DC011F00EC05E
:1006880012F00F28136E01D053D8132EFDD7105037
:10069800196E196604D0096A0A6A0B6A12001950A1
:1006A8007B0F14260BC019F00E50191A800E19165C
:1006B8000A8E0D8E000E0E16156A166A176A070E38
:1006C800186E09A002D00C502DD8D8900B320A32DF
:1006D8000932D8900C360D360E36182EF2D7090E80
:1006E800186E09A002D00C501DD8D8900B320A32CF
:1006F8000932D890173216321532182EF2D715C093
:1007080001F016C002F017C003F014C004F019C0BD
:1007180005F0F8EC04F001C009F002C00AF003C0CB
:100728000BF0120015260D5016220E50172212003B
:10073800D8901232113210321200D6EC04F0B3EC19
:1007480006F05750000120EEDFF0DF6204D0E051E0
:10075800030BD8B41200DF5157180EE0546A090E83
:10076800536E010E5C6E5C0E016E000E036EDF0EA2
:10077800026E530EBAEC05F00001E051030B0EE0D7
:10078800546A0A0E536E010E5C6E5C0E016E000E0A
:10079800036EE00E026E530EBAEC05F0D6EC04F0D0
:1007A800B3EC06F057380F0B4B6E57500F0B496ED2
:1007B80049C029F04B50F7EC01F044C040F045C067
:1007C80041F040C055F04150566E546A050E0FD89E
:1007D800BAEC05F042C040F043C041F040C055F0CB
:1007E8004150566E546A070E02D8BAEF05F0536EA0
:1007F800020E5C6E5C0E016E550E026E000E036EEC
:100808000F0E036E5F0E0264036A530E12000F0E82
:1008180043D8286E286605D01A6A1B6A1C6A1D6AA6
:100828001200170E39D8236E1B8E1C6A1A50246EBC
:100838001B50256E1C50266E276A8E0E285E28AE29
:100848000CD02850800A8F0FE7E3D8902732263241
:1008580025322432283EF9D70CD0170E286407D049
:10086800DBD7D8902436253626362736280628663C
:10087800F8D7235008E0271E261E251E246C000EDC
:1008880025222622272224C01AF025C01BF026C0C4
:100898001CF027C01DF012001E6E1AC01FF01BC0EE
:1008A80020F01CC021F01E28226E04D0D8902132DE
:1008B80020321F32222EFAD71F501200E8CF02F042
:1008C8000E01E06B0138E846E00B0809E06FE16BC8
:1008D80002380F0B0809E16FE26B0238F00B0F09C1
:1008E800E26FE36BE369E0CEE4FEE1CEE5FEE2CE43
:1008F800E6FEE3CEE7FEE0CEE8FEE1CEE9FEE2CE9C
:10090800EAFEE3CEEBFEE0CEECFEE1CEEDFEE2CE7B
:10091800EEFEE3CEEFFE680EF06F6A0EF16F0F0E7B
:10092800F26FF369E0CEF4FEE1CEF5FEE2CEF6FE1C
:10093800E3CEF7FE1F0EF86F830EF96FF00EFA6F15
:10094800FB6B1F0EFC6FE30EFD6FF00EFE6FFF6B6F
:100958001200546A050E536E3FD836D8B3EC06F031
:1009680055C044F0456A56C040F0416A40504412B0
:1009780041504512546A070E536E2ED825D8B3EC51
:1009880006F055C042F0436A56C040F0416A4050F4
:1009980042124150431206D8B3EC06F05850030BEC
:1009A8004C6E1200546A090E536E020E5C6E5C0E99
:1009B800016E570E026E000E036E0F0E036E5F0E71
:1009C8000264036A530E1200036E0F0E036E5F0E6D
:1009D8000264036A530E1200020E5C6E5C0E016E16
:1009E800550E026E000E1200045004E00150021071
:1009F800031006E1016A026A036A1200042A38D861
:100A0800066A076AFE0E0314086E065007100810DF
:100A180007E0F4D7042A012A000E0222032228D86C
:100A2800066A076A0350086E06500710081006E0A9
:100A3800F1D70406D89001360236033602AEF9D74C
:100A480004A0029ED89004320450086E076A066A11
:100A58000650011207500212085003120550D8A47C
:100A6800038E01C001F002C002F003C003F01200BF
:100A7800D890033202320132120000803F00703FEA
:100A880000603F00503F00403F00303F00203F00E3
:100A9800103F00003F00E03E00C03E00A03E008046
:100AA8003E00403E00003E00000000000000803D87
:100AB80000003E00403E00803E00A03E00C03E00D8
:100AC800E03E00003F00103F00203F00303F004064
:100AD8003F00503F00603F00803F409C45505045DC
:100AE800401C4500FA44007A44AD264400FA43000D
:100AF800C843A6A64300484300EEF2F012EE80F089
:100B0800EE6AE550E150FCE1E250FAE100EEDEF079
:100B1800140EEE6AE806FDE15D6A00EE3CF01D0E7B
:100B2800EE6AE806FDE1820EF66E0A0EF76E000E1A
:100B3800F86E00EE60F010EE7EF00900F5CFEEFFE3
:100B4800E550E150FAE1CC0EF66E0F0EF76E000E8E
:100B5800F86E00EE59F010EE04F00900F5CFEEFF44
:100B6800E550E150FAE1000117EF06F0E8CF04F094
:100B78003F0EF21620D0756A0450D96EDA6ADF503B
:100B8800746E0450D96EDA6ADF2A02C0D9FF03C036
:100B9800DAFFDF50736E024A032A3F0E7F167F8406
:100BA800550E7E6EAA0E7E6E7F8200F07FB2FED753
:100BB80000F0040E7F160150D96EDA6ADF06FF0EC8
:100BC800DF62D9D7C00EF216C00C016A026A8138FA
:100BD800E842070B036E016A026A014A022AE80E1C
:100BE800015C030E0258F9E38138E842070B031849
:100BF80008E0FF0C130C140C150C160C170C180C31
:100C08001A0C0350F7E0010AF6E0030AF5E0010ABE
:100C1800F4E0070AF3E0010AF2E0030AF1E0010A4E
:100C2800D8A412001B0C010E066EF40E056E95EC8E
:100C380007F0C7EC07F082EC07F0060EF4EC06F0BC
:100C48004A6E4A5040EC06F0D1800001DE0E066E76
:100C58005B0E076EEE0E29EC00F008E30001DE0ED5
:100C6800356E5BC036F0EE0E1DEC01F00400475007
:100C7800ECE111EC07F0E9D7E8CF04F09386939400
:100C88006F8E6EAEFED73F0E72160E01436BD10EFD
:100C9800446FC10E456F210E706E060E60120F0173
:100CA8003013030E016E045067EC06F0030E016E5C
:100CB800045062EC04F0E8EC07F0706A1F0E6F163F
:100CC8006EA01200FDD7E8CF03F0216B03C002F03D
:100CD800D89002320138E846E00B0210216F226BEF
:100CE8000340800B0909226F236B0F0E236F246BBF
:100CF800246921CF11FF22CF12FF23CF13FF24CF66
:100D080014FF21CF01FF22CF02FF23CF03FF24CFFF
:100D180004FF1200056A066A045003101BE0010E66
:100D2800076E04D0D89003360436072A04AEFAD7E3
:100D3800D890053606360350015C0450025805E386
:100D48000350015E0450025A0580D89004320332E1
:100D5800072EEED705C001F006C002F01200E8CF5A
:100D680004F0756A0450D96EDA6ADF50746E045064
:100D7800D96EDA6ADF2A736A3F0E7F167F8000F029
:100D880002C0D9FF03C0DAFF73CFDFFF024A032A8C
:100D98000150D96EDA6ADF06FF0EDF62E2D7FF0C78
:100DA800E8CF05F0050E596E056603D00001E66B25
:100DB80003D0010E0001E66F536A546A040E5C6E9C
:100DC8005C0E016E000E036EE70E026E530EB3EC5E
:100DD80006F0E60E016E59C002F04F0E9EEF02F0CB
:100DE800E8CF04F00AD0200E04D0E9EC05F001D0D9
:100DF8002E0E056E10D0056A0ED00450010AF3E0DD
:100E0800030AF3E0010A07E0070A05E0010A03E024
:100E1800030AEEE0F0D70550120000015DA21200AF
:100E28005D924D2A630E4D64630C4D6A482A030E89
:100E38004864030C486A8384D59EF294060E4E6E6D
:100E4800ADEC04F0CD80010E5A6E00015D80010CFE
:100E5800036A0350DE0FD96EDA6A0350E60FE16EBB
:100E6800E26ADFCFE7FF032A070E0364F2D75BC00D
:100E780059F0E60E016E59C002F04F0E9EEF02F0D7
:100E8800E8CF06F0536A546A040E5C6E5C0E016E7D
:100E98000001000E036EDF0E026E530EBAEC05F071
:100EA8000604D8A41200010ED4EF06F007D0828CF5
:100EB800828802D0829C8298838605D04C50010A91
:100EC800F6E0030AF7E042C03EF043C03FF00001FD
:100ED8005D80120007D0829C829802D0828C828822
:100EE800839605D04C50010AF6E0030AF7E044C0A7
:100EF8003EF045C03FF000015D901200C00EF212B6
:100F0800F28AF294D59CD59AD80ED76EEF0ED66E8B
:100F1800D58E9D809E90CD6A3C0ECF6EAF0ECE6E64
:100F2800AF0C076A086A08D0030E026EE50E016E60
:100F3800B7EC07F0074A082A0550075C065008581E
:100F4800D8B01200F1D73C0ECF6EAF0ECE6E3C4A31
:100F58003D2A3E503C5C3F503D58D8A012003C6AA8
:100F68003D6AD4EF07F0FB0E0126FF0E0222036A4A
:100F7800046A02D0034A042A0150035C0250045850
:100F8800D8B01200F7D7E00E936E8F0E946EF30E62
:100F9800956E0F015C6B829A828C82888386120020
:100FA8005A50D8B412005DB076EF07F062EF07F040
:100FB800D80ED76EEF0ED66E00015D82EF0CC450CE
:0A0FC800C3501200080108041200D3
:020000040030CA
:020000001503E6
:020003002200D9
:02000B00E00013
:00000001FF
