:0400000027EF00F0F6
:10000800F2AA01D001D007D0F2A401D001D003D0C8
:10001800F2945DEC0FF09DA001D001D007D09EA016
:1000280001D001D003D09E9027EC0FF06E509DAC0C
:1000380001D001D007D09EAC01D001D003D09E9C46
:0A00480064EC0FF01100CBEF0CF098
:100F0000061407020000E8CF08F077A039D07790E8
:100F1000609E0850D96EDA6A61CFDFFF0850D96E43
:100F2000DA6AD92ADA6A62CFDFFFD3D863CFDFFF6C
:100F3000D7D864CFDFFF0750D96EDA6A65CFDFFFFD
:100F40000650D96EDA6A66CFDFFF0650D96EDA6ACC
:100F5000D92ADA6A67CFDFFF92D868CFDFFF96D849
:100F600069CFDFFFA1D86ACFDFFF97D86BCFDFFF54
:100F7000A2D86CCFDFFFA6D86DCFDFFFD8801200DC
:100F800077A239D077920F01309F0850D96EDA6A74
:100F900031CFDFFF0850D96EDA6AD92ADA6A32CF48
:100FA000DFFF97D833CFDFFF9BD834CFDFFF075069
:100FB000D96EDA6A35CFDFFF0650D96EDA6A36CFDE
:100FC000DFFF0650D96EDA6AD92ADA6A37CFDFFF37
:100FD00056D838CFDFFF5AD839CFDFFF65D83ACFA0
:100FE000DFFF5BD83BCFDFFF66D83CCFDFFF6AD89F
:100FF0003DCFDFFFC3D777B4779477B6779677B8CE
:10100000779877AA33D0779A0850D96EDA6ADF6A70
:101010000850D96EDA6AD92ADA6ADF6A5AD8DF6AE2
:101020005FD8DF6A0750D96EDA6ADF6A0650D96E78
:10103000DA6ADF6A0650D96EDA6AD92ADA6ADF6AB2
:101040000650D96EDA6A020E13D8030E11D8040EB8
:101050000FD8050E0DD8060E0BD8070ED926DA6A62
:10106000DF6A060E58EC0EF0C6EC0DF0D8901200B8
:10107000D926DA6ADF6A0650D96EDA6A120006509B
:10108000D96EDA6A020ED926DA6A12000650D96ED3
:10109000DA6A030ED926DA6A12000650D96EDA6AC5
:1010A000050ED926DA6A12000650D96EDA6A040EE5
:1010B000D926DA6A12000650D96EDA6A060ED926E7
:1010C000DA6A12000650D96EDA6A070ED926DA6A91
:1010D00012000850D96EDA6A020ED926DA6A1200B6
:1010E0000850D96EDA6A030ED926DA6A1200E8CF00
:1010F0003BF009D0446A22D0010E03D0020E01D089
:10110000030E446E1BD03550D96EDA6ADF50376E4D
:10111000060E386ED8903732382EFCD7030E3716AD
:1011200037C039F03A6A3A50E5E13950E3E0010A54
:10113000E3E0030AE3E0010AE3E0DCD73B50D96EC9
:10114000DA6AD92ADA6ADF50376E050E386ED8901F
:101150003732382EFCD73750030B030A0FE14550C6
:10116000D8A41200466AD58ECD505C6A00015F900B
:101170004C6A828C82888386839412004450020ACF
:1011800071E13550D96EDA6ADF503F0B020A6AE02E
:10119000ACEC0EF067D04404D8A41200000E75EF3A
:1011A0000EF04450C4EF0EF0040E5B6E020E4D6E56
:1011B000566A090E556E020E5E6E5E0E016E4E0E82
:1011C000026E550E39EC0EF02DD0FAEC0AF0440404
:1011D0000FE1030E5B6E4D6E59C04EF05AC04FF0DA
:1011E0004D0E016E5BC002F00001EC0EF7EC09F051
:1011F00007EC0DF0C00EF212F28AF294D59CD59A4B
:10120000D80ED76EEF0ED66ED58EEF0CE1C04CF037
:10121000838407EC0DF0CD80010E5C6E00015F80D1
:10122000456E14D04CC050F04D0E016E5BC002F004
:10123000EC0EF7EF09F04C6A456ACD50D58E5C6A2A
:1012400000015F90828C8288838683944404D8A4B2
:101250001200040E5B6E020E4D6E59C04EF05AC065
:101260004FF0E0D73550D96EDA6ADF50376E3F0E57
:10127000371637C038F0396A3950D8A412003850C0
:101280008AE0010A8EE0030A8FE0010A9EE0070A65
:10129000BDE0010AD0E0FA0AD8A412008FEF0CF0EA
:1012A000E8CF30F0316A326A336A346A3350030D62
:1012B000F3500001900F5DD880EC0AF009C01AF0DD
:1012C0000AC01BF00BC01CF065EC0BF086D8D89060
:1012D0002C362D36E82EFBD7010E2C242E6E0D0E4B
:1012E0006FD83350030DF3500001600F42D880ECEB
:1012F0000AF009C01AF00AC01BF00BC01CF065EC24
:101300000BF06BD8D8902C362D36E82EFBD7C10EBB
:101310002C242E6E0B0E54D8334A342A3450800AB3
:10132000800F100ED8B4335CC1E3314A322A3250F8
:10133000800A800F0A0ED8B4315CB6E32950200D24
:10134000010EF3242A6E0D0E29D814EC0EF001C004
:1013500042F002C043F02950200DC10EF3242A6E42
:101360000B0E1CD814EC0EF001C040F002C041F08E
:101370001200D96EDA6ADECF0CF0DECF0DF0DDCFD1
:101380000EF03150030DF350C00FD96EDA6ADECF84
:1013900009F0DECF0AF0DDCF0BF01200F4202B6E47
:1013A0003050020DF3502A24D96EF4502B20DA6EFF
:1013B000DECF01F0DDCF02F0046A190E036E190CC6
:1013C0002D202F6E2A502E24D96E2B502F20DA6E0E
:1013D0001AC0DEFF1BC0DDFF1200D89033342A6E26
:1013E00034342B6E31C02CF032C02DF0050C0F01BF
:1013F00020BF19D002C025FF0150D96EDA6ADF5034
:10140000266F77D8276F45D8286F4BD8296F59D8C2
:101410002A6F4FD82B6F5DD82C6F63D82D6F208724
:1014200020A71200FDD710BF19D002C015FF015030
:10143000D96EDA6ADF50166F5CD8176F2AD8186F2A
:1014400030D8196F3ED81A6F34D81B6F42D81C6F32
:1014500048D81D6F208720A71200FDD700BF1200BB
:1014600002C005FF0150D96EDA6ADF50066F41D81D
:10147000076F0FD8086F15D8096F23D80A6F19D8CE
:101480000B6F27D80C6F2DD80D6F008700A71200A7
:10149000FDD70150D96EDA6A020ED926DA6ADF501A
:1014A00012000150D96EDA6A030ED926DA6ADF50CB
:1014B00012000150D96EDA6A050ED926DA6ADF50B9
:1014C00012000150D96EDA6A040ED926DA6ADF50AA
:1014D00012000150D96EDA6A060ED926DA6ADF5098
:1014E00012000150D96EDA6A070ED926DA6ADF5087
:1014F00012000150D96EDA6AD92ADA6ADF50120076
:101500000F0E0F6E09C010F00AC011F00BC012F0E0
:101510000F28136E01D069D8132EFDD71050146E0A
:10152000146604D0096A0A6A0B6A12000F0E0F6E65
:101530000CC010F00DC011F00EC012F00F28136E89
:1015400001D053D8132EFDD71050196E196604D050
:10155000096A0A6A0B6A120019507B0F14260BC025
:1015600019F00E50191A800E19160A8E0D8E000EE3
:101570000E16156A166A176A070E186E09A002D0B1
:101580000C502DD8D8900B320A320932D8900C3634
:101590000D360E36182EF2D7090E186E09A002D09D
:1015A0000C501DD8D8900B320A320932D89017321D
:1015B00016321532182EF2D715C001F016C002F0FF
:1015C00017C003F014C004F019C005F007EC0CF0CC
:1015D00001C009F002C00AF003C00BF0120015268A
:1015E0000D5016220E5017221200D89012321132CE
:1015F000103212002CEC0DF039EC0EF059500001B5
:1016000020EEE1F0DF6204D0E251030BD8B4120007
:10161000E15159180EE0566A090E556E010E5E6EC4
:101620005E0E016E000E036EE10E026E550E40EC72
:101630000DF00001E251030B0EE0566A0A0E556EE2
:10164000010E5E6E5E0E016E000E036EE20E026E05
:10165000550E40EC0DF02CEC0DF039EC0EF0593835
:101660000F0B496E59500F0B476E47C029F0495078
:1016700050EC09F042C03EF043C03FF03EC057F08E
:101680003F50586E566A050E556E10D840EC0DF05E
:1016900040C03EF041C03FF03EC057F03F50586E52
:1016A000566A070E556E02D840EF0DF0020E5E6EC0
:1016B0005E0E016E570E026E000E036E0F0E036E6D
:1016C0005F0E0264036A550E12000F0E43D8286E97
:1016D000286605D01A6A1B6A1C6A1D6A1200170E5A
:1016E00039D8236E1B8E1C6A1A50246E1B50256E2F
:1016F0001C50266E276A8E0E285E28AE0CD028500D
:10170000800A8F0FE7E3D890273226322532243221
:10171000283EF9D70CD0170E286407D0DBD7D89015
:10172000243625362636273628062866F8D723504D
:1017300008E0271E261E251E246C000E25222622C8
:10174000272224C01AF025C01BF026C01CF027C099
:101750001DF012001E6E1AC01FF01BC020F01CC02E
:1017600021F01E28226E04D0D890213220321F3260
:10177000222EFAD71F501200E8CF02F00E01E06BC4
:101780000138E846E00B0809E06FE16B02380F0B07
:101790000809E16FE26B0238F00B0F09E26FE36BAF
:1017A000E369E0CEE4FEE1CEE5FEE2CEE6FEE3CE86
:1017B000E7FEE0CEE8FEE1CEE9FEE2CEEAFEE3CED1
:1017C000EBFEE0CEECFEE1CEEDFEE2CEEEFEE3CEB1
:1017D000EFFE680EF06F6A0EF16F0F0EF26FF36995
:1017E000E0CEF4FEE1CEF5FEE2CEF6FEE3CEF7FE6D
:1017F0001F0EF86F830EF96FF00EFA6FFB6B1F0E62
:10180000FC6FE30EFD6FF00EFE6FFF6B12000450D5
:1018100004E001500210031006E1016A026A036A43
:101820001200042A38D8066A076AFE0E0314086EEE
:1018300006500710081007E0F4D7042A012A000E0A
:101840000222032228D8066A076A0350086E06504F
:101850000710081006E0F1D70406D89001360236CA
:10186000033602AEF9D704A0029ED8900432045089
:10187000086E076A066A06500112075002120850E5
:1018800003120550D8A4038E01C001F002C002F07B
:1018900003C003F01200D89003320232013212006A
:1018A00000803F00703F00603F00503F00403F001D
:1018B000303F00203F00103F00003F00E03E00C0EE
:1018C0003E00A03E00803E00403E00003E00000082
:1018D00000000000803D00003E00403E00803E00D1
:1018E000A03E00C03E00E03E00003F00103F002050
:1018F0003F00303F00403F00503F00603F00803FCE
:10190000409C45505045401C4500FA44007A44AD87
:10191000264400FA4300C843A6A643004843060EE7
:101920005B6E4D68000EF66E0F0EF76E0800F5CF79
:101930004EF0000E036E032A03C0F6FF0F0EF76E83
:101940000800F5CF4FF0000E036E020E032603C011
:10195000F6FF0F0EF76E0800F5CF50F0000E036E85
:10196000030E032603C0F6FF0F0EF76E0800F5CF37
:1019700051F0000E036E040E032603C0F6FF0F0E97
:10198000F76E0800F5CF52F04D0E016E5BC002F00D
:10199000EC0EF7EF09F00BEEC1F012EE80F0EE6AFC
:1019A000E550E150FCE1E250FAE100EEDEF0120E0B
:1019B000EE6AE806FDE15F6A00EE3CF01F0EEE6A9B
:1019C000E806FDE1A00EF66E180EF76E000EF86E3A
:1019D00000EE60F010EE7EF00900F5CFEEFFE5506E
:1019E000E150FAE1CE0EF66E1E0EF76E000EF86EA6
:1019F00000EE5BF010EE04F00900F5CFEEFFE550CD
:101A0000E150FAE1000EF86E00019DEF0DF0566A0C
:101A1000050E2DD839EC0EF057C042F0436A58C07D
:101A20003EF03F6A3E5042123F504312566A070E44
:101A30001ED839EC0EF057C040F0416A58C03EF055
:101A40003F6A3E5040123F50411206D839EC0EF02A
:101A50005A50030B4A6E1200566A090E556E020E5A
:101A60005E6E5E0E016E590E026E550E1200556EC0
:101A7000020E5E6E5E0E016E570E026E550E120065
:101A8000E8CF04F03F0EF21620D0756A0450D96EEC
:101A9000DA6ADF50746E0450D96EDA6ADF2A02C047
:101AA000D9FF03C0DAFFDF50736E024A032A3F0EEC
:101AB0007F167F84550E7E6EAA0E7E6E7F8200F0AA
:101AC0007FB2FED700F0040E7F160150D96EDA6A9D
:101AD000DF06FF0EDF62D9D7C00EF216C00C016A16
:101AE000026A8138E842070B036E016A026A014A02
:101AF000022AE80E015C030E0258F9E38138E8423D
:101B0000070B031808E0FF0C130C140C150C160C33
:101B1000170C180C1A0C0350F7E0010AF6E0030A40
:101B2000F5E0010AF4E0070AF3E0010AF2E0030A33
:101B3000F1E0010AD8A412001B0C010E066EF40E8F
:101B4000056E15EC0FF048EC0FF002EC0FF0060EEE
:101B500058EC0EF0486E4850C6EC0DF0D1800001F4
:101B6000E00E066E5D0E076EE80E83EC07F008E3EC
:101B70000001E00E356E5DC036F0E80E77EC08F03F
:101B800004004550ECE191EC0EF0E9D7E8CF04F009
:101B9000938693946F8E6EAEFED73F0E72160E0133
:101BA000436BD10E446FC10E456F210E706E060E51
:101BB00060120F013013030E016E0450EDEC0DF0B6
:101BC000030E016E0450BCEC0BF069EC0FF0706A70
:101BD0001F0E6F166EA01200FDD7E8CF03F0216B29
:101BE00003C002F0D89002320138E846E00B021040
:101BF000216F226B0340800B0909226F236B0F0EAC
:101C0000236F246B246921CF11FF22CF12FF23CF32
:101C100013FF24CF14FF21CF01FF22CF02FF23CFD8
:101C200003FF24CF04FF1200056A066A0450031064
:101C30001BE0010E076E04D0D89003360436072A45
:101C400004AEFAD7D890053606360350015C04502E
:101C5000025805E30350015E0450025A0580D890F3
:101C600004320332072EEED705C001F006C002F0A1
:101C70001200E8CF03F0756A0350D96EDA6ADF50BC
:101C8000746E0350D96EDA6ADF2A736A3F0E7F16CC
:101C90007F8000F00250D96EDA6A73CFDFFF022A2C
:101CA0000150D96EDA6ADF06FF0EDF62E4D7FF0C5F
:101CB000E8CF04F00AD0200E04D06FEC0DF001D074
:101CC0002E0E056E10D0056A0ED00450010AF3E006
:101CD000030AF3E0010A07E0070A05E0010A03E04E
:101CE000030AEEE0F0D705501200E8CF04F0050E2D
:101CF0005B6E046602D04D6A02D0010E4D6E556ACD
:101D0000566A040E5E6E5E0E016E4E0E026E550E2B
:101D100039EC0EF04D0E016E5BC002F0EC0EF7EFE9
:101D200009F000015FA212005F924B2A630E4B6420
:101D3000630C4B6A462A030E4664030C466A83848E
:101D4000D59EF294060E4C6E07EC0DF0CD80010E80
:101D50005C6E00015F80010C036A0350E00FD96ED6
:101D6000DA6A03504D0FE16EE26ADFCFE7FF032A24
:101D7000070E0364F2D75DC05BF04D0E016E5BC0D1
:101D800002F0EC0EF7EF09F0E8CF05F0556A566A5D
:101D9000040E5E6E5E0E016E0001000E036EE10E1B
:101DA000026E550E40EC0DF00504D8A41200010E91
:101DB00075EF0EF007D0828C828802D0829C8298C8
:101DC000838605D04A50010AF6E0030AF7E040C0D6
:101DD0003CF041C03DF000015F80120007D0829CC2
:101DE000829802D0828C8288839605D04A50010A5C
:101DF000F6E0030AF7E042C03CF043C03DF00001CA
:101E00005F901200C00EF212F28AF294D59CD59A1D
:101E1000D80ED76EEF0ED66ED58E9D809E90CD6A71
:101E20003C0ECF6EAF0ECE6EAF0C076A086A08D0BC
:101E3000030E026EE50E016E38EC0FF0074A082A19
:101E40000550075C06500858D8B01200F1D73C0E78
:101E5000CF6EAF0ECE6E0001DE4BDF2B3C50DE5D51
:101E60003D50DF59D8A01200DE6BDF6B55EF0FF04D
:101E7000FB0E0126FF0E0222036A046A02D0034A07
:101E8000042A0150035C02500458D8B01200F7D75E
:101E9000E00E936E8F0E946EF30E956E0F015C6BD9
:101EA000829A828C8288838612005C50D8B4120099
:101EB0005FB0F6EF0EF0E2EF0EF0D80ED76EEF0E39
:101EC000D66E00015F82EF0CC450C35012000801AF
:041ED00008041200F0
:020000040030CA
:020000001503E6
:020003002200D9
:02000B00E00013
:00000001FF
